:1000000012C02CC02BC02AC029C028C027C026C0BF
:1000100025C024C023C022C021C020C01FC01EC0D4
:100020001DC01CC01BC011241FBECFE5D4E0DEBF25
:10003000CDBF10E0A0E6B0E0E6E6F1E002C005903A
:100040000D92A636B107D9F720E0A6E6B0E001C0D0
:100050001D92A636B207E1F739D083C0D1CF0F93F6
:100060001F939C01CB01BA018901330F220B330B83
:10007000000F111F221F331F000F111F221F331FDC
:10008000A9019801220F331F441F551F220F331F50
:10009000441F551F44D02150310930BD29B988E192
:1000A0008AB986E880BD1F910F9108955D9BFECFB0
:1000B0008CB90895CF93DF93EC0102C0F7DF21964E
:1000C00088818111FBCFDF91CF91089540E052E10B
:1000D0006AE770E080E895E2C2DF87B3826087BBA1
:1000E00088B3826088BB80E690E0E4DF2FEF84E392
:1000F0009CE0215080409040E1F700C0000088B3B0
:100100008D7F88BB83E690E0D5DF2FEF84E39CE012
:10011000215080409040E1F700C00000E1CFA1E213
:100120001A2EAA1BBB1BFD010DC0AA1FBB1FEE1F71
:10013000FF1FA217B307E407F50720F0A21BB30BBC
:10014000E40BF50B661F771F881F991F1A9469F738
:1001500060957095809590959B01AC01BD01CF0194
:060160000895F894FFCFA2
:0601660061310061300070
:00000001FF
